{
  "_format": "hh-sol-artifact-1",
  "contractName": "BasicMarketplace",
  "sourceName": "contracts/BasicMarketplace.sol",
  "abi": [
    {
      "inputs": [],
      "stateMutability": "nonpayable",
      "type": "constructor"
    },
    {
      "anonymous": false,
      "inputs": [
        {
          "indexed": true,
          "internalType": "uint256",
          "name": "_productId",
          "type": "uint256"
        }
      ],
      "name": "savingsEvent",
      "type": "event"
    },
    {
      "inputs": [
        {
          "internalType": "string",
          "name": "title",
          "type": "string"
        },
        {
          "internalType": "string",
          "name": "description",
          "type": "string"
        },
        {
          "internalType": "uint8",
          "name": "askingPrice",
          "type": "uint8"
        }
      ],
      "name": "addProduct",
      "outputs": [],
      "stateMutability": "nonpayable",
      "type": "function"
    },
    {
      "inputs": [
        {
          "internalType": "uint256",
          "name": "productId",
          "type": "uint256"
        }
      ],
      "name": "getProduct",
      "outputs": [
        {
          "components": [
            {
              "internalType": "uint8",
              "name": "id",
              "type": "uint8"
            },
            {
              "internalType": "address",
              "name": "creator",
              "type": "address"
            },
            {
              "internalType": "address",
              "name": "owner",
              "type": "address"
            },
            {
              "internalType": "string",
              "name": "title",
              "type": "string"
            },
            {
              "internalType": "string",
              "name": "description",
              "type": "string"
            },
            {
              "internalType": "uint8",
              "name": "askingPrice",
              "type": "uint8"
            },
            {
              "internalType": "bool",
              "name": "isSold",
              "type": "bool"
            }
          ],
          "internalType": "struct BasicMarketplace.Product",
          "name": "",
          "type": "tuple"
        }
      ],
      "stateMutability": "view",
      "type": "function"
    },
    {
      "inputs": [],
      "name": "getProducts",
      "outputs": [
        {
          "components": [
            {
              "internalType": "uint8",
              "name": "id",
              "type": "uint8"
            },
            {
              "internalType": "address",
              "name": "creator",
              "type": "address"
            },
            {
              "internalType": "address",
              "name": "owner",
              "type": "address"
            },
            {
              "internalType": "string",
              "name": "title",
              "type": "string"
            },
            {
              "internalType": "string",
              "name": "description",
              "type": "string"
            },
            {
              "internalType": "uint8",
              "name": "askingPrice",
              "type": "uint8"
            },
            {
              "internalType": "bool",
              "name": "isSold",
              "type": "bool"
            }
          ],
          "internalType": "struct BasicMarketplace.Product[]",
          "name": "",
          "type": "tuple[]"
        }
      ],
      "stateMutability": "view",
      "type": "function"
    },
    {
      "inputs": [],
      "name": "numProduct",
      "outputs": [
        {
          "internalType": "uint8",
          "name": "",
          "type": "uint8"
        }
      ],
      "stateMutability": "view",
      "type": "function"
    },
    {
      "inputs": [
        {
          "internalType": "uint256",
          "name": "",
          "type": "uint256"
        }
      ],
      "name": "products",
      "outputs": [
        {
          "internalType": "uint8",
          "name": "id",
          "type": "uint8"
        },
        {
          "internalType": "address",
          "name": "creator",
          "type": "address"
        },
        {
          "internalType": "address",
          "name": "owner",
          "type": "address"
        },
        {
          "internalType": "string",
          "name": "title",
          "type": "string"
        },
        {
          "internalType": "string",
          "name": "description",
          "type": "string"
        },
        {
          "internalType": "uint8",
          "name": "askingPrice",
          "type": "uint8"
        },
        {
          "internalType": "bool",
          "name": "isSold",
          "type": "bool"
        }
      ],
      "stateMutability": "view",
      "type": "function"
    },
    {
      "inputs": [
        {
          "internalType": "uint256",
          "name": "productId",
          "type": "uint256"
        }
      ],
      "name": "sellProduct",
      "outputs": [],
      "stateMutability": "nonpayable",
      "type": "function"
    }
  ],
  "bytecode": "0x60806040523480156200001157600080fd5b506000600160006101000a81548160ff021916908360ff160217905550620000ac6040518060400160405280600781526020017f466c6174205456000000000000000000000000000000000000000000000000008152506040518060400160405280600f81526020017f5456207468617420697320666c617400000000000000000000000000000000008152506064620000b260201b60201c565b6200079f565b6000806000600160009054906101000a900460ff1660ff1681526020019081526020016000209050338160000160016101000a81548173ffffffffffffffffffffffffffffffffffffffff021916908373ffffffffffffffffffffffffffffffffffffffff160217905550338160010160006101000a81548173ffffffffffffffffffffffffffffffffffffffff021916908373ffffffffffffffffffffffffffffffffffffffff160217905550818160040160006101000a81548160ff021916908360ff1602179055506040518060e00160405280600160009054906101000a900460ff1660ff1681526020018260000160019054906101000a900473ffffffffffffffffffffffffffffffffffffffff1673ffffffffffffffffffffffffffffffffffffffff1681526020018260010160009054906101000a900473ffffffffffffffffffffffffffffffffffffffff1673ffffffffffffffffffffffffffffffffffffffff1681526020018581526020018481526020018260040160009054906101000a900460ff1660ff16815260200160001515815250600080600160009054906101000a900460ff1660ff16815260200190815260200160002060008201518160000160006101000a81548160ff021916908360ff16021790555060208201518160000160016101000a81548173ffffffffffffffffffffffffffffffffffffffff021916908373ffffffffffffffffffffffffffffffffffffffff16021790555060408201518160010160006101000a81548173ffffffffffffffffffffffffffffffffffffffff021916908373ffffffffffffffffffffffffffffffffffffffff16021790555060608201518160020190816200033791906200064e565b5060808201518160030190816200034f91906200064e565b5060a08201518160040160006101000a81548160ff021916908360ff16021790555060c08201518160040160016101000a81548160ff0219169083151502179055509050506001600081819054906101000a900460ff1680929190620003b59062000771565b91906101000a81548160ff021916908360ff1602179055505050505050565b600081519050919050565b7f4e487b7100000000000000000000000000000000000000000000000000000000600052604160045260246000fd5b7f4e487b7100000000000000000000000000000000000000000000000000000000600052602260045260246000fd5b600060028204905060018216806200045657607f821691505b6020821081036200046c576200046b6200040e565b5b50919050565b60008190508160005260206000209050919050565b60006020601f8301049050919050565b600082821b905092915050565b600060088302620004d67fffffffffffffffffffffffffffffffffffffffffffffffffffffffffffffffff8262000497565b620004e2868362000497565b95508019841693508086168417925050509392505050565b6000819050919050565b6000819050919050565b60006200052f620005296200052384620004fa565b62000504565b620004fa565b9050919050565b6000819050919050565b6200054b836200050e565b620005636200055a8262000536565b848454620004a4565b825550505050565b600090565b6200057a6200056b565b6200058781848462000540565b505050565b5b81811015620005af57620005a360008262000570565b6001810190506200058d565b5050565b601f821115620005fe57620005c88162000472565b620005d38462000487565b81016020851015620005e3578190505b620005fb620005f28562000487565b8301826200058c565b50505b505050565b600082821c905092915050565b6000620006236000198460080262000603565b1980831691505092915050565b60006200063e838362000610565b9150826002028217905092915050565b6200065982620003d4565b67ffffffffffffffff811115620006755762000674620003df565b5b6200068182546200043d565b6200068e828285620005b3565b600060209050601f831160018114620006c65760008415620006b1578287015190505b620006bd858262000630565b8655506200072d565b601f198416620006d68662000472565b60005b828110156200070057848901518255600182019150602085019450602081019050620006d9565b868310156200072057848901516200071c601f89168262000610565b8355505b6001600288020188555050505b505050505050565b7f4e487b7100000000000000000000000000000000000000000000000000000000600052601160045260246000fd5b600060ff82169050919050565b60006200077e8262000764565b915060ff820362000794576200079362000735565b5b600182019050919050565b61171880620007af6000396000f3fe608060405234801561001057600080fd5b50600436106100625760003560e01c8063492deb151461006757806376ac9625146100835780637acc0b201461009f578063b9db15b4146100d5578063c29b2f2014610105578063ddd2e8a914610123575b600080fd5b610081600480360381019061007c9190610cb9565b610141565b005b61009d60048036038101906100989190610e65565b6101bb565b005b6100b960048036038101906100b49190610cb9565b6104d7565b6040516100cc9796959493929190610fda565b60405180910390f35b6100ef60048036038101906100ea9190610cb9565b610690565b6040516100fc9190611171565b60405180910390f35b61010d6108e1565b60405161011a91906112f8565b60405180910390f35b61012b610beb565b604051610138919061131a565b60405180910390f35b60008060008381526020019081526020016000209050338160010160006101000a81548173ffffffffffffffffffffffffffffffffffffffff021916908373ffffffffffffffffffffffffffffffffffffffff16021790555060018160040160016101000a81548160ff0219169083151502179055505050565b6000806000600160009054906101000a900460ff1660ff1681526020019081526020016000209050338160000160016101000a81548173ffffffffffffffffffffffffffffffffffffffff021916908373ffffffffffffffffffffffffffffffffffffffff160217905550338160010160006101000a81548173ffffffffffffffffffffffffffffffffffffffff021916908373ffffffffffffffffffffffffffffffffffffffff160217905550818160040160006101000a81548160ff021916908360ff1602179055506040518060e00160405280600160009054906101000a900460ff1660ff1681526020018260000160019054906101000a900473ffffffffffffffffffffffffffffffffffffffff1673ffffffffffffffffffffffffffffffffffffffff1681526020018260010160009054906101000a900473ffffffffffffffffffffffffffffffffffffffff1673ffffffffffffffffffffffffffffffffffffffff1681526020018581526020018481526020018260040160009054906101000a900460ff1660ff16815260200160001515815250600080600160009054906101000a900460ff1660ff16815260200190815260200160002060008201518160000160006101000a81548160ff021916908360ff16021790555060208201518160000160016101000a81548173ffffffffffffffffffffffffffffffffffffffff021916908373ffffffffffffffffffffffffffffffffffffffff16021790555060408201518160010160006101000a81548173ffffffffffffffffffffffffffffffffffffffff021916908373ffffffffffffffffffffffffffffffffffffffff160217905550606082015181600201908161043e9190611541565b5060808201518160030190816104549190611541565b5060a08201518160040160006101000a81548160ff021916908360ff16021790555060c08201518160040160016101000a81548160ff0219169083151502179055509050506001600081819054906101000a900460ff16809291906104b890611642565b91906101000a81548160ff021916908360ff1602179055505050505050565b60006020528060005260406000206000915090508060000160009054906101000a900460ff16908060000160019054906101000a900473ffffffffffffffffffffffffffffffffffffffff16908060010160009054906101000a900473ffffffffffffffffffffffffffffffffffffffff169080600201805461055990611364565b80601f016020809104026020016040519081016040528092919081815260200182805461058590611364565b80156105d25780601f106105a7576101008083540402835291602001916105d2565b820191906000526020600020905b8154815290600101906020018083116105b557829003601f168201915b5050505050908060030180546105e790611364565b80601f016020809104026020016040519081016040528092919081815260200182805461061390611364565b80156106605780601f1061063557610100808354040283529160200191610660565b820191906000526020600020905b81548152906001019060200180831161064357829003601f168201915b5050505050908060040160009054906101000a900460ff16908060040160019054906101000a900460ff16905087565b610698610bfe565b6000808381526020019081526020016000206040518060e00160405290816000820160009054906101000a900460ff1660ff1660ff1681526020016000820160019054906101000a900473ffffffffffffffffffffffffffffffffffffffff1673ffffffffffffffffffffffffffffffffffffffff1673ffffffffffffffffffffffffffffffffffffffff1681526020016001820160009054906101000a900473ffffffffffffffffffffffffffffffffffffffff1673ffffffffffffffffffffffffffffffffffffffff1673ffffffffffffffffffffffffffffffffffffffff16815260200160028201805461078e90611364565b80601f01602080910402602001604051908101604052809291908181526020018280546107ba90611364565b80156108075780601f106107dc57610100808354040283529160200191610807565b820191906000526020600020905b8154815290600101906020018083116107ea57829003601f168201915b5050505050815260200160038201805461082090611364565b80601f016020809104026020016040519081016040528092919081815260200182805461084c90611364565b80156108995780601f1061086e57610100808354040283529160200191610899565b820191906000526020600020905b81548152906001019060200180831161087c57829003601f168201915b505050505081526020016004820160009054906101000a900460ff1660ff1660ff1681526020016004820160019054906101000a900460ff1615151515815250509050919050565b60606000600160009054906101000a900460ff1660ff1667ffffffffffffffff81111561091157610910610d01565b5b60405190808252806020026020018201604052801561094a57816020015b610937610bfe565b81526020019060019003908161092f5790505b50905060005b600160009054906101000a900460ff1660ff16811015610be35760008060008381526020019081526020016000209050806040518060e00160405290816000820160009054906101000a900460ff1660ff1660ff1681526020016000820160019054906101000a900473ffffffffffffffffffffffffffffffffffffffff1673ffffffffffffffffffffffffffffffffffffffff1673ffffffffffffffffffffffffffffffffffffffff1681526020016001820160009054906101000a900473ffffffffffffffffffffffffffffffffffffffff1673ffffffffffffffffffffffffffffffffffffffff1673ffffffffffffffffffffffffffffffffffffffff168152602001600282018054610a6590611364565b80601f0160208091040260200160405190810160405280929190818152602001828054610a9190611364565b8015610ade5780601f10610ab357610100808354040283529160200191610ade565b820191906000526020600020905b815481529060010190602001808311610ac157829003601f168201915b50505050508152602001600382018054610af790611364565b80601f0160208091040260200160405190810160405280929190818152602001828054610b2390611364565b8015610b705780601f10610b4557610100808354040283529160200191610b70565b820191906000526020600020905b815481529060010190602001808311610b5357829003601f168201915b505050505081526020016004820160009054906101000a900460ff1660ff1660ff1681526020016004820160019054906101000a900460ff161515151581525050838381518110610bc457610bc361166b565b5b6020026020010181905250508080610bdb9061169a565b915050610950565b508091505090565b600160009054906101000a900460ff1681565b6040518060e00160405280600060ff168152602001600073ffffffffffffffffffffffffffffffffffffffff168152602001600073ffffffffffffffffffffffffffffffffffffffff1681526020016060815260200160608152602001600060ff1681526020016000151581525090565b6000604051905090565b600080fd5b600080fd5b6000819050919050565b610c9681610c83565b8114610ca157600080fd5b50565b600081359050610cb381610c8d565b92915050565b600060208284031215610ccf57610cce610c79565b5b6000610cdd84828501610ca4565b91505092915050565b600080fd5b600080fd5b6000601f19601f8301169050919050565b7f4e487b7100000000000000000000000000000000000000000000000000000000600052604160045260246000fd5b610d3982610cf0565b810181811067ffffffffffffffff82111715610d5857610d57610d01565b5b80604052505050565b6000610d6b610c6f565b9050610d778282610d30565b919050565b600067ffffffffffffffff821115610d9757610d96610d01565b5b610da082610cf0565b9050602081019050919050565b82818337600083830152505050565b6000610dcf610dca84610d7c565b610d61565b905082815260208101848484011115610deb57610dea610ceb565b5b610df6848285610dad565b509392505050565b600082601f830112610e1357610e12610ce6565b5b8135610e23848260208601610dbc565b91505092915050565b600060ff82169050919050565b610e4281610e2c565b8114610e4d57600080fd5b50565b600081359050610e5f81610e39565b92915050565b600080600060608486031215610e7e57610e7d610c79565b5b600084013567ffffffffffffffff811115610e9c57610e9b610c7e565b5b610ea886828701610dfe565b935050602084013567ffffffffffffffff811115610ec957610ec8610c7e565b5b610ed586828701610dfe565b9250506040610ee686828701610e50565b9150509250925092565b610ef981610e2c565b82525050565b600073ffffffffffffffffffffffffffffffffffffffff82169050919050565b6000610f2a82610eff565b9050919050565b610f3a81610f1f565b82525050565b600081519050919050565b600082825260208201905092915050565b60005b83811015610f7a578082015181840152602081019050610f5f565b60008484015250505050565b6000610f9182610f40565b610f9b8185610f4b565b9350610fab818560208601610f5c565b610fb481610cf0565b840191505092915050565b60008115159050919050565b610fd481610fbf565b82525050565b600060e082019050610fef600083018a610ef0565b610ffc6020830189610f31565b6110096040830188610f31565b818103606083015261101b8187610f86565b9050818103608083015261102f8186610f86565b905061103e60a0830185610ef0565b61104b60c0830184610fcb565b98975050505050505050565b61106081610e2c565b82525050565b61106f81610f1f565b82525050565b600082825260208201905092915050565b600061109182610f40565b61109b8185611075565b93506110ab818560208601610f5c565b6110b481610cf0565b840191505092915050565b6110c881610fbf565b82525050565b600060e0830160008301516110e66000860182611057565b5060208301516110f96020860182611066565b50604083015161110c6040860182611066565b50606083015184820360608601526111248282611086565b9150506080830151848203608086015261113e8282611086565b91505060a083015161115360a0860182611057565b5060c083015161116660c08601826110bf565b508091505092915050565b6000602082019050818103600083015261118b81846110ce565b905092915050565b600081519050919050565b600082825260208201905092915050565b6000819050602082019050919050565b600060e0830160008301516111d76000860182611057565b5060208301516111ea6020860182611066565b5060408301516111fd6040860182611066565b50606083015184820360608601526112158282611086565b9150506080830151848203608086015261122f8282611086565b91505060a083015161124460a0860182611057565b5060c083015161125760c08601826110bf565b508091505092915050565b600061126e83836111bf565b905092915050565b6000602082019050919050565b600061128e82611193565b611298818561119e565b9350836020820285016112aa856111af565b8060005b858110156112e657848403895281516112c78582611262565b94506112d283611276565b925060208a019950506001810190506112ae565b50829750879550505050505092915050565b600060208201905081810360008301526113128184611283565b905092915050565b600060208201905061132f6000830184610ef0565b92915050565b7f4e487b7100000000000000000000000000000000000000000000000000000000600052602260045260246000fd5b6000600282049050600182168061137c57607f821691505b60208210810361138f5761138e611335565b5b50919050565b60008190508160005260206000209050919050565b60006020601f8301049050919050565b600082821b905092915050565b6000600883026113f77fffffffffffffffffffffffffffffffffffffffffffffffffffffffffffffffff826113ba565b61140186836113ba565b95508019841693508086168417925050509392505050565b6000819050919050565b600061143e61143961143484610c83565b611419565b610c83565b9050919050565b6000819050919050565b61145883611423565b61146c61146482611445565b8484546113c7565b825550505050565b600090565b611481611474565b61148c81848461144f565b505050565b5b818110156114b0576114a5600082611479565b600181019050611492565b5050565b601f8211156114f5576114c681611395565b6114cf846113aa565b810160208510156114de578190505b6114f26114ea856113aa565b830182611491565b50505b505050565b600082821c905092915050565b6000611518600019846008026114fa565b1980831691505092915050565b60006115318383611507565b9150826002028217905092915050565b61154a82610f40565b67ffffffffffffffff81111561156357611562610d01565b5b61156d8254611364565b6115788282856114b4565b600060209050601f8311600181146115ab5760008415611599578287015190505b6115a38582611525565b86555061160b565b601f1984166115b986611395565b60005b828110156115e1578489015182556001820191506020850194506020810190506115bc565b868310156115fe57848901516115fa601f891682611507565b8355505b6001600288020188555050505b505050505050565b7f4e487b7100000000000000000000000000000000000000000000000000000000600052601160045260246000fd5b600061164d82610e2c565b915060ff82036116605761165f611613565b5b600182019050919050565b7f4e487b7100000000000000000000000000000000000000000000000000000000600052603260045260246000fd5b60006116a582610c83565b91507fffffffffffffffffffffffffffffffffffffffffffffffffffffffffffffffff82036116d7576116d6611613565b5b60018201905091905056fea264697066735822122081d5eac18b7e6517f97158a2ef6efc86c53b1c670120ec2f3d76f4551b69189264736f6c63430008140033",
  "linkReferences": {},
  "deployedLinkReferences": {}
}